:1000000000300020E90600002D0700003107000045
:1000100000000000000000000000000000000000E0
:100020000000000000000000000000005B0600006F
:10003000000000000000000091060000D106000052
:100040004107000045070000490700004D07000078
:1000500029070000290700002907000029070000E0
:100060005107000055070000590700005D07000018
:10007000610700006507000069070000290700000C
:1000800029070000290700002907000029070000B0
:1000900029070000290700002907000029070000A0
:1000A000290700002907000021230000290700007C
:1000B0002907000029070000290700002907000080
:10040000FFFFFFFFFFFFFFFFFFFFFFFFFEFFFFFFFD
:1004100010B5064C2378002B07D1054B002B02D0DA
:10042000044800E000BF0123237010BD70F0FF1FDF
:1004300000000000E43F000008B5084B002B03D08B
:100440000748084900E000BF07480368002B03D0B5
:10045000064B002B00D0984708BDC04600000000A6
:10046000E43F000074F0FF1F6CF0FF1F000000006D
:10047000164B002B00D1144B9D46402292029A1A33
:10048000924600218B460F461348144A121A03F075
:10049000ABF80F4B002B00D098470E4B002B00D031
:1004A00098470020002104000D000D48002802D0CC
:1004B0000C4800E000BF03F071F82000290001F0B3
:1004C00055FF03F055F8C04600000800003000203A
:1004D000000000000000000070F0FF1F00FAFF1F86
:1004E0000000000000000000002934D00123002299
:1004F00010B488422CD301242407A14204D28142A3
:1005000002D209011B01F8E7E400A14204D28142B2
:1005100002D249005B00F8E7884201D3401A1A432F
:100520004C08A04202D3001B5C0822438C08A04266
:1005300002D3001B9C082243CC08A04202D3001B1C
:10054000DC082243002803D01B0901D00909E3E796
:10055000101C10BC7047002801D00020C04307B415
:10056000024802A14018029003BDC046D900000015
:100570000029F0D003B5FFF7B9FF0EBC4243891A3A
:100580001847C046002941D010B4041C4C40A44672
:1005900001230022002900D54942002800D540420D
:1005A00088422CD301242407A14204D2814202D2E2
:1005B00009011B01F8E7E400A14204D2814202D202
:1005C00049005B00F8E7884201D3401A1A434C08FF
:1005D000A04202D3001B5C0822438C08A04202D335
:1005E000001B9C082243CC08A04202D3001BDC085D
:1005F0002243002803D01B0901D00909E3E7101C9E
:100600006446002C00D5404210BC7047002806D03C
:1006100003DB0020C043400801E08020000607B44F
:10062000024802A14018029003BDC0461900000014
:100630000029EBD003B5FFF7A7FF0EBC4243891A90
:100640001847C0467047C046EFF3108072B6704737
:1006500080F31088704770477047022080F3148839
:10066000BFF36F8F1C481D4902681268F0CAA0468C
:10067000A946B246BB46F0CA82F309880068086002
:100680001748012101700422714611438E467047BC
:10069000114812490A68EFF30983203B1360F0C345
:1006A00044464D4656465F46F0C302681268103213
:1006B000F0CAA046A946B246BB4682F30988203A52
:1006C000F0CA02680A600422714611438E467047E0
:1006D00000B5044B984700BDBCF0FF1FB8F0FF1FEA
:1006E000C5F0FF1F012B000072B6084808490160E1
:1006F000084880470849094A094B9B1A03DD043B17
:10070000C858D050FBDC62B60648804708ED00E0D0
:1007100000000000BD2E00000C40000000F0FF1F94
:1007200070F0FF1F71040000104800471048004798
:10073000104800471048004710480047104800473D
:10074000104800471048004710480047104800472D
:10075000104800471048004710480047104800471D
:10076000104800471048004710480047290700007C
:100770002D070000310700005B0600009106000015
:10078000D1060000D1160000E91600000117000094
:10079000191700007915000099150000450D00009B
:1007A000810D000055150000B1070000D5070000BD
:1007B00080B500AF044B1A68044B5B680449081C01
:1007C000191C9047BD4680BDC4F8FF1FB8F8FF1F35
:1007D00000B0064080B500AF044B1A68044B9B681C
:1007E0000449081C191C9047BD4680BDC4F8FF1F72
:1007F000B8F8FF1F00C0064080B500AF024A034BA7
:100800000349D150BD4680BD007004404410000033
:100810000000031080B582B000AF7860024B7A68A8
:100820001A60BD4602B080BD78F8FF1F80B584B065
:1008300000AF3B1C0C3300221A703B1C0C3301220E
:100840005A703B1C0C3300229A703B1D0E4A03CA9F
:1008500003C3FFF7D1FF00F01DF83B1C0C33002051
:1008600000211A1C00F0C2FF02200021002201F02A
:1008700023FA3B1D181C01F00BF9044B044A1A60C3
:10088000BD4604B080BDC046F036000000F0FF1F3A
:10089000006CDC0280B582B000AF3B1C064A03CA84
:1008A00003C33B1C181C01F0E7FA044B181CFFF7AC
:1008B000B1FFBD4602B080BDF836000000127A00DC
:1008C00090B585B000AF78607B681B0C084A9B1818
:1008D000FB60FB68FA6811687A681204120C012048
:1008E000041C9440221C0A431A60BD4605B090BD0A
:1008F0000070044080B584B000AFF860B960FB1DA3
:100900001A70FB68BA689200D258084B1A40FB1D57
:100910001B781902E023DB000B40111C1943FB6814
:10092000BA689200D150BD4604B080BDFFF8FFFF09
:1009300080B500AF114B181CFFF7C2FF104B181CFD
:10094000FFF7BEFF0F4B181C12210322FFF7D2FF47
:100950000C4B181C13210322FFF7CCFF0A4B181C69
:1009600001210422FFF7C6FF084A0849084BC9586D
:10097000084B1940064BD150BD4680BD0A003810C7
:100980000C00381000A0044000C004400070044077
:100990000C100000FFFFEFFF80B500AF0E4B181CDE
:1009A000FFF78EFF0D4B181C10210022FFF7A2FF4E
:1009B0000A4B0A4A116C0A4A0A401A64074B181C6F
:1009C00011210022FFF796FF044B044A516C044AA0
:1009D0000A405A64BD4680BD0A00381000A0044099
:1009E000FDFFFFFE80B584B000AF786039603B68E2
:1009F000002B06D16049614A614B081C222100F09E
:100A000035FF3B1C0F3300221A703B1C0E330022B3
:100A10001A705C4B181C00F02DFC7B681A68802350
:100A2000134008D03B1C0F3301221A707B68181C3E
:100A3000002100F087FC7B681A684023134008D02F
:100A40003B1C0E3301221A707B68181C012100F038
:100A5000FFF83B681B7A002B38D13B681B887A680B
:100A6000101C191C00F0B6FC3B685B887A68101CEF
:100A7000191C00F087FC3B681B797A68101C191C54
:100A800000F02EFC3B689B797A68101C191C00F062
:100A9000E3FC3B685B797A68101C191C00F0F6FCDB
:100AA0003B68DB797A68101C191C00F031FC3B684C
:100AB0001B7A7A68101C191C00F0B4FC3B685B7A46
:100AC0007A68101C191C00F0FBFC3EE03B681B8898
:100AD0007A68101C191C00F07DFC3B685B887A6802
:100AE000101C191C00F04EFC3B681B797A68101C26
:100AF000191C00F0F5FB3B689B797A68101C191CE7
:100B000000F0AAFC3B68DB797A68101C191C00F025
:100B1000FFFB3B681B7A7A68101C191C00F082FCF2
:100B20003B685B7A7A68101C191C00F0C9FC3B68B2
:100B30009B7A7A68101C191C00F0DCFC3B68DB7A9D
:100B40007A68101C191C00F0EFFC3B1C0F331B785B
:100B5000002B04D07B68181C012100F0F3FB3B1C28
:100B60000E331B78002B04D07B68181C012100F089
:100B700041F8BD4604B080BD20370000A43F00000E
:100B8000383700000500381080B582B000AF7860BB
:100B90007B6800221A607B6800225A607B68002212
:100BA0009A60034B181C00F07FFBBD4602B080BD6D
:100BB0000500381080B582B000AF78607B680022F5
:100BC0001A807B6800225A807B6801221A717B6838
:100BD00000225A717B6803229A717B680422DA71C1
:100BE0007B6800221A727B6800225A72BD4602B0EE
:100BF00080BDC04680B584B000AF786039607B6846
:100C00001A68114B1340FB603A680123134003D06C
:100C1000FB6840221343FB603A680223134003D071
:100C2000FA680A4B1340FB603A680423134004D06F
:100C3000FB68802252051343FB607B68FA681A60E8
:100C4000BD4604B080BDC046FBFFFF7FFFFFFFEF46
:100C500080B584B000AF786039607B681A68114B4A
:100C60001340FB603A680123134003D0FB68402225
:100C70009343FB603A680223134004D0FB68802250
:100C800052051343FB603A680423134003D0FA680B
:100C9000054B1340FB607B68FA681A60BD4604B0E0
:100CA00080BDC046FBFFFF7FFFFFFFEF80B584B034
:100CB00000AF786039607B681A680C4B1340FB60AA
:100CC0003A680423134003D0FB6804221343FB60FB
:100CD0003B68002B04DAFB68802212061343FB609A
:100CE0007B68FA681A60BD4604B080BDFBFFFF7FD9
:100CF00080B582B000AF786039607B681B78DBB26A
:100D00001A1C102313400AD00B4B1B680B4A39687E
:100D100089008A587968081C111C984709E0084B1B
:100D20001B68064A396889008A587968081C111CB2
:100D30009847BD4602B080BDB0F8FF1FA8F8FF1F5E
:100D4000B4F8FF1F80B500AF084B1B68002B06D11D
:100D50000748F9239900074A074B00F087FD074B26
:100D6000181C0021FFF7C4FFBD4680BDA8F8FF1F77
:100D7000FC370000003F00002C38000000600740F6
:100D800080B500AF084B5B68002B06D10748FB23FA
:100D90009900074A074B00F069FD074B181C012119
:100DA000FFF7A6FFBD4680BDA8F8FF1FFC37000077
:100DB000183F00003C3800000070074090B585B037
:100DC00000AF78607B681B0C084A9B18FB60FB68CF
:100DD000FA6811687A681204120C0120041C94400D
:100DE000221C0A431A60BD4605B090BD0070044045
:100DF00080B584B000AF78600323BB600023FB6044
:100E000009E00F4BFA689200D2587B689A4206D0EC
:100E1000FB680133FB60FA68BB689A42F1D3FA6859
:100E2000BB689A4206D30749074A084B081C4E2163
:100E300000F01CFDFB68181CBD4604B080BDC04618
:100E4000303F0000BC380000483F0000D4380000AC
:100E500080B582B000AF786039603B68002B06D166
:100E60002F49304A304B081C552100F0FFFC7B68AD
:100E7000181CFFF7BDFF021C2C4B9200D358181C06
:100E8000FFF79CFF3B681B781A1C07231A407B68FE
:100E90001A603B68DB785A0120231A403B685B7874
:100EA000590280239B000B401A433B685B799904ED
:100EB0008023DB020B401A433B68DB791904802353
:100EC0005B020B401A433B689B79590480239B02C9
:100ED0000B401A433B689B781906F0231B050B4017
:100EE000111C19437A688423D1503B681B79002B6D
:100EF00009D07A688423D358C022111C19437A6818
:100F00008423D15008E07A688423D358C022191C66
:100F100091437A688423D150BD4602B080BDC0465B
:100F2000BC380000583F0000F03800003C3F000093
:100F300080B582B000AF78607B68002B06D1114984
:100F4000114A124B081C852100F090FC7B6800229E
:100F50001A707B6800225A707B680022DA707B6806
:100F600000221A717B6800225A717B6800229A71F4
:100F70007B680022DA717B6800229A70BD4602B05D
:100F800080BDC046BC380000643F0000F03800005F
:100F900080B588B000AFF860B960111C1A1CFB1D49
:100FA0001970BB1D1A70BB68002B06D17549764AB3
:100FB000764B081CA72100F059FCBB6A002B06D118
:100FC0007049714A724B081CA82100F04FFCFB1DB0
:100FD0001B78002B06D16B496B4A6E4B081CA9216C
:100FE00000F044FCFB6A002B06D16649664A6A4B56
:100FF000081CAA2100F03AFCFB681B681A1C072396
:101000001340FA6A111CD9400B1C7B61BB1D1B7875
:10101000002B02D0012B10D01EE0FB681B682022A1
:10102000191C91430A1CFB681A607869B96AFFF7BA
:101030005BFA031C013BFB6110E0FB681B6820228C
:101040001A43FB681A60BB6A5B007869191CFFF7DA
:101050004BFA031CFB6101E001238EE0FA694F4B60
:101060009A4201D9012388E0FB68FA699A603B1C27
:10107000193300221A7077E0BB689B78642B01D982
:1010800001237AE0BB689B78002B04D13B1C1A3308
:1010900000221A8018E0BB689B78FA695343181C39
:1010A0006421FFF721FA031C1A1C3B1C1A331A8017
:1010B0003B1C1A331A88FB699A4205D3FB699AB222
:1010C0003B1C1A3301321A80BB681B78181CBB68A2
:1010D0001B78FA680133DB00D3185B683C22191CCB
:1010E00091430A1CF968431CDB00CB185A60BB68AB
:1010F0001B78FA680133DB00D3185A683C2313408D
:10110000F5D1BB681B78181CBB681B78FA680133E3
:10111000DB00D3185A68BB685B789B00134320221E
:101120001A43F968431CDB00CB185A60BB681B7874
:10113000FA680133DB00D3185A683C231340F5D01A
:10114000BB681B783A1C1A321288F9680133DB003D
:10115000CB189A60BB680333BB603B1C19331A7809
:101160003B1C193301321A703A1C1932FB1D1278DC
:101170001B789A4200D27FE70023181CBD4608B0B6
:1011800080BDC046BC3800007C3F0000F83800003D
:1011900004390000103900001C390000FFFF000076
:1011A00080B584B000AF7860081C111C1A1CFB1CB1
:1011B0001870BB1C19707B1C1A70FB1C1A7879689C
:1011C000264B99420ED07968254B994208D0796810
:1011D000244B994201D1022305E001235B4202E046
:1011E000022300E006239A4207DB1F486823191CEC
:1011F000FF311E4A1E4B00F039FB7B689A683B1C8E
:101200000C331A803B1C0C331B887A1C1278534316
:10121000181C6421FFF7B6F9031C1A1C3B1C0E3383
:101220001A803A1C0E323B1C0C3312881B889A42DF
:1012300006D33B1C0E333A1C0C32128801321A8042
:10124000FB1C1B783A1C0E32128879680133DB00D4
:10125000CB189A60BD4604B080BDC04600800340F4
:101260000090034000A00340BC3800008C3F000009
:101270002839000090B585B000AF78607B681B0C02
:10128000084A9B18FB60FB68FA6811687A681204C8
:10129000120C0120041C9440221C0A431A60BD4613
:1012A00005B090BD0070044090B585B000AF786087
:1012B0007B681B0C094A9B18FB60FB68FA68126884
:1012C00079680904090C0120041C8C40211CC943C5
:1012D0000A401A60BD4605B090BDC046007004408B
:1012E00080B582B000AF78600A1CFB1C1A707B6866
:1012F0001A68064B1A40FB1C1B785B031B041B0C73
:101300001A437B681A60BD4602B080BDFB1FFF7F99
:1013100080B582B000AF78600A1CFB1C1A707B6835
:101320001A68074B1A40FB1C1B781902F8235B0153
:101330000B401A437B681A60BD4602B080BDC046B0
:10134000FBE0FF7F80B582B000AF78600A1CFB1C19
:101350001A70FB1C1B78002B08D07B681A68084B9E
:10136000134080221A437B681A6005E07B681A6884
:10137000034B1A407B681A60BD4602B080BDC04670
:101380007BFFFF7F80B582B000AF78600A1CBB1C7A
:101390001A80BB1C1A880A4B9A4205D109480A498F
:1013A0000A4A0B4B00F062FA7B689B681B0C1A041C
:1013B000BB1C1B881A437B689A60BD4602B080BD87
:1013C000FFFF00006C39000056020000C83F00001B
:1013D000AC39000080B582B000AF78600A1CBB1C3D
:1013E0001A80BB1C1A880B4B9A4206D10A489923D3
:1013F00099000A4A0A4B00F039FA7B689B681B0483
:101400001A0CBB1C1B881B041A437B689A60BD46E0
:1014100002B080BDFFFF00006C390000B03F00004B
:10142000C439000080B582B000AF78600A1CFB1C94
:101430001A707B681A68074B1A40FB1C1B78190648
:10144000F0231B050B401A437B681A60BD4602B0AF
:1014500080BDC046FBFFFF7080B582B000AF7860F2
:101460000A1CFB1C1A707B681A68074B1A40FB1C8D
:101470001B785905E0231B040B401A437B681A6054
:10148000BD4602B080BDC046FBFF1F7F80B582B065
:1014900000AF78600A1CFB1C1A707B681A68074B47
:1014A0001A40FB1C1B781904E023DB020B401A4393
:1014B0007B681A60BD4602B080BDC046FBFFF87F66
:1014C00080B582B000AF78600A1CFB1C1A707B6884
:1014D0001A68074B1A40FB1C1B78D904C0235B0316
:1014E0000B401A437B681A60BD4602B080BDC046FF
:1014F000FBFFE77F80B582B000AF78600A1CFB1C61
:101500001A707B681A68074B1A40FB1C1B78190479
:10151000E023DB020B401A437B681A60BD4602B031
:1015200080BDC046FBFFFE7F80B582B000AF786013
:101530000A1CFB1C1A707B681A68054B1A40FB1CBE
:101540001B785B041A437B681A60BD4602B080BDFD
:10155000FBFFF97F80B500AF044B1A68044B1B6892
:101560000449081C191C9047BD4680BDA4F8FF1F04
:10157000A0F8FF1F00A0064080B500AF044B1B6819
:10158000044A101C191C00F017F8BD4680BDC04667
:1015900090F8FF1F0060064080B500AF044B5B6809
:1015A000044A101C191C00F007F8BD4680BDC04657
:1015B00090F8FF1F0070064080B582B000AF7860E1
:1015C00039607B68DB78DBB21A1C1023134006D12C
:1015D0007B689B78DBB21A1C2023134007D00A4B90
:1015E0001B6879683A68081C111C984706E0074B8D
:1015F0001B6879683A68081C111C9847BFF34F8F25
:10160000BD4602B080BDC04698F8FF1F9CF8FF1F82
:1016100080B584B000AFF860B9607A60BB68032B16
:1016200007D91048DA23191CFF310F4A0F4B00F07D
:101630001DF97B68002B12D0F968BA6884235B001F
:1016400012018A18D3181B68802252041A43F868C2
:10165000B96884235B0009014118CB181A60BD46A4
:1016600004B080BD203A0000E43E0000383A00009B
:1016700080B582B000AF78607B68002B06D111483E
:101680008D235900104A114B00F0F0F87B6819685F
:101690007B681B791A1C80235B04081C111C1A1C14
:1016A000FFF7B6FF7B689B68002B07D07B689A68C2
:1016B0007B68DB687968081C191C9047BD4602B03E
:1016C00080BDC046643A0000D43E0000B43A000039
:1016D00080B500AF034B1B68181CFFF7C9FFBD4660
:1016E00080BDC04680F8FF1F80B500AF034B5B682C
:1016F000181CFFF7BDFFBD4680BDC04680F8FF1F28
:1017000080B500AF034B9B68181CFFF7B1FFBD46C7
:1017100080BDC04680F8FF1F80B500AF034BDB687B
:10172000181CFFF7A5FFBD4680BDC04680F8FF1F0F
:1017300080B582B000AF021C3960FB1D1A703B6897
:10174000002B05D124482549254A264B00F08EF868
:10175000254B254A5278D2B202218A43D2B25A701E
:10176000214B214A1278D1B23B220A40D2B28021C9
:1017700049420A43D2B21A701B4B9B79DBB21A1C46
:101780001C231340082BF7D1174B174A5279D2B2BA
:1017900040218A43D2B25A71134B9B79DBB21A1C97
:1017A00020231340F8D13B68181C00F013FB0E4BAC
:1017B0000D4A5279D2B240210A43D2B25A710A4B31
:1017C0009B79DBB21A1C20231340F8D00023181C8D
:1017D000BD4602B080BDC046A03B000053050000DE
:1017E000AC3E0000B83B00000040064080B582B02F
:1017F00000AF3A60FB1D021C1A70BB1D0A1C1A7058
:101800003B68002B05D114481449154A154B00F0CC
:101810002DF8FB1D1B78181C00F02EFABB1D1A7842
:101820003B68101C191CFFF783FF0F4B0E4A127800
:10183000D1B23F220A40D2B21A700B4B9B79DBB275
:101840001A1C0C2313409B08032BF6D10023181CF1
:10185000BD4602B080BDC046A03B0000F2050000BE
:10186000C03E0000B83B00000040064090B587B085
:1018700002AFF860B9607A603B6005483968FA6881
:10188000BB687C68009401F0DBFB00BEFDE7C0464E
:10189000103C000080B500AF0C4B1B78DBB2DBB214
:1018A0005BB2002B0EDA0A4B1B68002B07D10948EC
:1018B0004E23191CFF31084A084BFFF7D7FF044B92
:1018C0001B6800E00023181CBD4680BD0050064088
:1018D00078F8FF1FA83C0000443E0000C03C000018
:1018E00080B582B000AF1A4B1A68C0231B031340A7
:1018F0009B0C022B10D0032B1ED0002B20D1FFF706
:10190000C9FF021C80231B029A4202D180231B02C2
:1019100000E000237B6015E00E4B1B68002B07D115
:101920000D486223191CFF310C4A0D4BFFF79EFF37
:10193000084B1B687B6005E0FA239B007B6001E09D
:1019400000237B607B68181CBD4602B080BDC0468A
:10195000007004407CF8FF1FA83C00005C3E0000C3
:10196000CC3C000080B582B000AF0F4A0F4BD2587C
:1019700080235B0213401B0C02D0012B05D00CE02E
:1019800000F0D0F8031C7B6009E000F035F9031C7F
:101990007B607B685B087B6001E000237B607B6889
:1019A000181CBD4602B080BD007004400410000049
:1019B00080B584B000AF021CFB1D1A70FB1D1B78A4
:1019C0000D2B57D89A002F4BD3181B689F4600F059
:1019D00079F8021C2C492D4BCB581B0F0133101CDE
:1019E000191CFEF781FD031CFB6045E000F06AF85E
:1019F000021C2549254BCB581B0F0133101C191C09
:101A0000FEF772FD031CFB601F4A204BD258E023F7
:101A1000DB0213401B0C0133F868191CFEF764FD50
:101A2000031CFB6028E0FFF79DFF031CFB6023E025
:101A3000FFF756FF031CFB601EE000F0C5F8031C17
:101A4000FB6019E000F0ACF8031CFB6014E000F050
:101A500069F8031CFB600FE000F0CEF8031CFB608C
:101A60000AE0FA239B00FB6006E0FFF713FF031C6C
:101A7000FB6001E00023FB60FB68181CBD4604B05E
:101A800080BDC046C43D000000700440441000000A
:101A900080B582B000AF7860084A7B685968084B0F
:101AA000D1507B681B78181C00F0DAFC7B685B78EF
:101AB000181C00F0BDFCBD4602B080BD00700440A3
:101AC0004410000080B582B000AF154B9B79DBB2AB
:101AD0001A1C0C2313409B083B603B68012B0ED063
:101AE00008D3022B10D0032B13D100F085F8031C70
:101AF0007B6010E000F016F8031C7B600BE000F048
:101B000081FD031C7B6006E000F010FD031C7B6080
:101B100001E000237B607B68181CBD4602B080BDDD
:101B20000040064080B582B000AF1B4B5B78DBB253
:101B30001A1C0223134006D1174B9B79DBB21A1CE7
:101B40002023134001D0002322E000F07DFD031C80
:101B50007B607B68002B01D17B6819E00E4BDB7842
:101B6000DBB21A1C602313405A09FB1C1A700A4B83
:101B7000DB78DAB2BB1CD2091A70FB1C1978BB1CCB
:101B80001A78064B49008A185200D35A7A68534390
:101B9000181CBD4602B080BD00400640743E0000E7
:101BA00080B500AF074B1B78DBB21A1C0223134031
:101BB00001D1002302E000F025FD031C181CBD46E6
:101BC00080BDC0460040064080B582B000AF00F046
:101BD0003BFD031C7B607B68002B08D0FFF772FF86
:101BE000031CDA087B689A4201D37B6800E000237B
:101BF000181CBD4602B080BD80B582B000AF194B45
:101C00009B79DBB21A1C4023134001D1002325E04D
:101C100000F032FD031C7B607B68002B05D112486D
:101C20001249134A134BFFF721FE0E4B1B79DBB20F
:101C30001A1C1F23134001337868191CFEF754FC4B
:101C4000031C7B60074B5B79DBB21A1C1F2313401C
:101C50001A1C18327B6853437B607B68181CBD4696
:101C600002B080BD00400640A83C00004E020000CB
:101C7000843E0000DC3C000080B582B000AF021C56
:101C8000FB1D1A70FB1DFA1D12781A70094B5B7848
:101C9000DBB21A1C0423134006D0064B9B79DBB23F
:101CA0001A1C02231340F8D00023181CBD4602B0B2
:101CB00080BDC0460040064080B584B000AFFB1D2B
:101CC0001870BB1D19707B1D1A70414B9B79DBB2DC
:101CD0001A1C0C2313409B08FB603D4B9B79D9B227
:101CE0003B1C0B3301220A401A70394B1B7ADBB2C2
:101CF0001A1C0E2313405A083B1C0A331A707A1D13
:101D00003B1C0A3312781B789A422ED03B1C0B33B3
:101D10001B78012B18D1FB68012B06D02C4B1B78AC
:101D2000DBB21A1C022313400ED0294B284A5278EA
:101D3000D2B201218A43D2B25A70254B9B79DBB2D1
:101D40001A1C01231340F8D1214A214B1B7ADBB224
:101D50002F218B43D9B27B1D1B78DB18D8B20E2301
:101D60000340DBB20B43DBB21372194B184A5278B3
:101D7000D2B201218A43D1B2BA1D107801220240A9
:101D8000D2B20A43D2B25A70114B114A1278D2B26F
:101D900003218A43D1B2FA1D12780A43D2B21A70D3
:101DA000FB68012B04D0FB1D1A780223134009D0D5
:101DB000074B9B79DBB21A1C01231A40BB1D1B7811
:101DC0009A42F5D10023181CBD4604B080BDC04620
:101DD0000040064080B584B000AF78607B68002B7F
:101DE00005D120482049214A214BFFF73FFD3B1CEC
:101DF0000F3300221A707B685A781F231340D9B220
:101E00003B1C0F333A1C0F3212780A431A70194BDD
:101E10003A1C0F3212781A71164B164A5279D2B206
:101E20001F218A43D1B27A6890781F220240D2B231
:101E30000A43D2B25A710F4B0E4A1279D1B27A6864
:101E400012780A43D2B240210A43D2B21A71094B26
:101E50009B79DBB21A1C40231340F8D0BD4604B076
:101E600080BDC046A83C0000FB020000983E000078
:101E7000E83C00000040064090B585B000AF7860B7
:101E80007B681B683C1C0F34181C00F0FDFB031C16
:101E900023707B681B791B4A101C191C00F020FB67
:101EA0007B680633174A101C191C00F0F5FA164B14
:101EB000154A5278D2B23C218A43D1B23A1C0F3231
:101EC00012781201D0B230220240D2B20A43D1B20B
:101ED0007A6852790A43D2B25A707B685B79002BD8
:101EE0000DD0084B1B78DBB2DBB25BB2002B06DAFD
:101EF000054B9B79DBB21A1C02231340F8D0BD4678
:101F000005B090BD005006400040064080B582B04C
:101F100000AF7860084A0849084BC958084B194077
:101F20007B681806C0239B0403401943034BD15020
:101F3000BD4602B080BDC0460070044004100000E1
:101F4000FFFFFFFC80B582B000AF78607B681A6845
:101F5000024B1340181CBD4602B080BD0400008037
:101F600080B582B000AF78600A1CFB1C1A70FB1CA5
:101F70001B78002B08D07B681A68084B134080221E
:101F80001A437B681A6005E07B681A68034B1A40A5
:101F90007B681A60BD4602B080BDC0467BFFFF7FF4
:101FA00080B582B000AF78607B685B688022D20326
:101FB0001A437B685A60BD4602B080BD80B582B0CE
:101FC00000AF78600A1CFB1C1A70FB1C1B780F2BDF
:101FD00005D9094809490A4A0A4BFFF747FC7B68BB
:101FE0005B681B011A09FB1C1B781B071A437B68E3
:101FF0005A60BD4602B080BDF03C00000502000002
:102000000C3E0000083D000080B582B000AF786053
:102010007B685B689BB2181CBD4602B080BDC046A1
:1020200080B584B000AF78600A1CFB1C1A707B6816
:102030001B68FB60FB6818229343FB60FB1C1B784A
:10204000DA0018231340FA681343FB607B68FA68D0
:102050001A60BD4604B080BD80B582B000AF786024
:102060000A2000F01DFFFBE780B58AB002AF786060
:102070003B1C103300221A6000225A6000221A72A0
:102080003B1C083300221A6000225A603B1C1033AC
:1020900000221A703B1C103300229A703B1C103334
:1020A00001225A703B1C10330122DA703B1C1033A2
:1020B00000225A713B1C103301221A713B1C103351
:1020C00001229A713B1C103300221A723B1C103300
:1020D0000122DA710120FFF719FF524B181C00F0A2
:1020E00095FF514B181C00F091FF3B1C0833181C46
:1020F000FEF71EFF4D4A3B1C0833101C191CFEF74F
:10210000A7FE4B4A3B1C0833101C191CFEF7A0FE0F
:102110000520FFF74DFC011C454A3B1C1033454888
:1021200000900191101C191C02220023FEF730FFC1
:102130000520FFF73DFC011C3C4A3B1C10330633D5
:102140003C4800900191101C191C01220023FEF74D
:102150001FFF374B181C0121FFF762FF334B181C80
:102160000121FFF75DFF324B181C002100224023A4
:10217000FFF716F82E4B181C012100224023FFF711
:102180000FF82A4B181C012100224023FFF708F802
:10219000294B1B68181C01210022002300F026FE99
:1021A000031CFB61642000F07BFEFB69002BEFD079
:1021B0003B1C1A33FA6912881A803B1C1A333A1CEA
:1021C0001A32128852091A803B1C1A331B88DBB260
:1021D000174A101C00210022FEF7E2FF3B1C1A33B5
:1021E0001B884022D31A402B07DC3B1C1A331B8868
:1021F000DBB24022D31ADBB200E000230C4A101CF1
:1022000001210022FEF7CCFF3B1C1A331B885B0820
:102210009BB2DBB2054A101C01210022FEF7C0FF71
:10222000B6E7C0461A003C1018003C10008003407E
:1022300000A00340E02E00006CF8FF1F80B586B0C0
:1022400000AF78603B1C0C3300221A6000225A60F9
:1022500000229A602E4B181C00F0D8FE2D4B181C43
:102260000021FFF77DFE2B4B181CFEF78DFC3B1C5D
:102270000C33181CFEF79EFC264A3B1C0C33101C2A
:10228000191CFEF7AFFB1A2000F03AFE1A20FD21C0
:1022900000F04CFE1F4B181C0521FEF7ABFC1D4B3C
:1022A000181C0121FFF75CFE1A2000F013FE194BE9
:1022B000181C0921FFF782FE164B181CFFF770FE51
:1022C000154B1B68181C01210622002300F04AFA56
:1022D000104B181CFFF798FE031C1A1C3B1C0A33FA
:1022E0001A80642000F0DCFD0C4B1A683B1C0A339A
:1022F000101C191C0322002300F064FD054B181C60
:102300000921FFF75BFE034B181CFFF749FED7E7D7
:10231000050038100050044070F8FF1F6CF8FF1FD4
:1023200080B582B000AF00F019FB0E4B181CFFF710
:1023300009FE031C7B607A680423134005D00A4B16
:102340001B68181C802100F027FA7B6801221343C8
:10235000044A101C191CFEF7A9FC00F019FBBD462D
:1023600002B080BD0050044070F8FF1F80B584B0FB
:1023700002AFFEF7DDFAFEF759FAFEF70DFB00F0AB
:1023800085FC214A214B00210091101C191C802240
:10239000012300F065FD1E4A1E4B00210091101C18
:1023A000191C8022042300F05BFD1B4A1B4B0021FB
:1023B0000091101C191C4022032300F051FD3B1D0D
:1023C000181C0121002200F0EFFC021C144B1A60C3
:1023D00000200121002200F023FD021C114B1A6095
:1023E000002000F0B3F9021C0F4B1A60002000F02F
:1023F000C3FC021C0D4B1A6000F090FC0023181C5B
:10240000BD4602B080BDC0466920000068F1FF1FD4
:102410003D22000068F4FF1F5920000068F7FF1FED
:102420006CF8FF1F68F8FF1F70F8FF1F74F8FF1F9C
:1024300080B582B000AF7860074B074A1168074A41
:1024400011407A689004C022120302400A431A60C5
:10245000BD4602B080BDC04600700440FFFFF3FFE0
:1024600080B582B000AF7860084A0849084BC95867
:10247000084B19407B68180480235B020340194312
:10248000034BD150BD4602B080BDC0460070044031
:1024900004100000FFFFFEFF80B584B000AF78603D
:1024A00039603B1C0F337A6812781A703B1C0F336B
:1024B0003A1C0F3211785F220A401A703B68197873
:1024C0003B1C0F333A1C0F3212780A431A707B6898
:1024D0003A1C0F3212781A70BD4604B080BDC04657
:1024E00080B584B000AF78600A1CFB1C1A703B1CDE
:1024F0000F337A6812781A703B1C0F333A1C0F3274
:1025000012780F218A431A703B1C0F33391C0F318C
:10251000FA1C097812780A431A707B683A1C0F3249
:1025200012781A70BD4604B080BDC04680B500AFB9
:10253000074B1B68002B06D10649074A074B081CAE
:10254000CD21FFF793F9024B1B68181CBD4680BDD7
:1025500078F8FF1FA03D00002C3E0000B83D0000B1
:1025600080B582B000AFFFF7E1FF031C7B607B68A2
:10257000002B01D17B683EE0214B1B78DBB21A1C9B
:1025800038231340DA08FB1C1A70FB1C1B787A688E
:10259000111CD9400B1C7B60194B5B78DBB21A1CF9
:1025A000302313401A09BB1C1A70BB1C1B78002B6C
:1025B00020D0FB1C1B78062B0AD002DC002B17DB7B
:1025C00002E0072B0CD013E07B685B097B6011E015
:1025D0007B68181C1421FDF787FF031C7B6009E052
:1025E0007B68181C0C21FDF77FFF031C7B6001E05A
:1025F00000237B607B68181CBD4602B080BDC046CE
:102600000040064080B500AF0C4B9B79DBB21A1C32
:102610000123134002D10A4B1B680BE0094B1A68D7
:10262000064B1B7ADBB2191C0E230B405B08111CF6
:10263000D9400B1C181CBD4680BDC046004006405A
:1026400004F0FF1F08F0FF1F80B500AF084B9B7917
:10265000DBB21A1C102313401B0903D1FFF780FFC4
:10266000031C01E0034B1B68181CBD4680BDC0461F
:102670000040064004F0FF1F80B500AFFFF756FF93
:10268000031C181CBD4680BD80B584B000AF7860C7
:102690007A680E4B9A4204D83B1C0F3300221A7002
:1026A0000CE07A680A4B9A4204D83B1C0F33012293
:1026B0001A7003E03B1C0F3302221A703B1C0F33CD
:1026C0001B78181CBD4604B080BDC046979800001A
:1026D00000127A0080B500AF0C4B00221A600B4B41
:1026E0000B4A5A600B4B802292005A61094BFF2221
:1026F0001206DA61074B084A1A62044B034A126851
:1027000007210A431A60BD4680BDC04610E000E0C4
:1027100080BB000000ED00E00000FFFE80B500AFD0
:10272000044B044A5268802149050A435A60BD4659
:1027300080BDC04600ED00E080B582B000AFBB1D9B
:1027400000221A80BD4602B080BDC04680B584B06C
:1027500000AF78600023FB60BB68181CBD4604B066
:1027600080BDC04680B588B000AFF860B960111C6C
:102770001A1CFB1D19703B1D1A800023FB610023EE
:10278000BB613B1C163300221A80FB683B610023AF
:10279000181CBD4608B080BD80B584B000AF78601D
:1027A00039607B68FB600023BB600023181CBD46BA
:1027B00004B080BD90B585B000AF021C3960BB1D70
:1027C0001A803B1C0E33BA1D128852091A803B1C1A
:1027D0000C33BA1D11881F220A401A803B681A6800
:1027E0003B1C0E331B880121081C9840031C1A4314
:1027F0003B681A603B1C0E3318883B1C0E331B8849
:102800003A689B00D3185A683B1C0C331B88012183
:102810000C1C9C40231C1A4339688300CB185A6057
:10282000BD4605B090BDC04690B585B000AF021C56
:102830003960BB1D1A803B1C0E33BA1D1288520929
:102840001A803B1C0C33BA1D11881F220A401A80C3
:102850003B1C0E3318883B1C0E331B883A689B00C8
:10286000D3185B683A1C0C32128801210C1C94406E
:10287000221CD2431A4039688300CB185A603B1C93
:102880000E331B883A689B00D3185B68002B0CD171
:102890003B681B683A1C0E3212880121081C9040CC
:1028A000021CD2431A403B681A60BD4605B090BD79
:1028B00080B582B000AF7860FEE7C04680B584B0D6
:1028C00000AF78607A681F4B9A4218D97A681E4B1D
:1028D0009A420AD97A681D4B9A4203D91C23FB609D
:1028E000C04621E01823FB601EE07A68184B9A422C
:1028F00002D91423FB6017E01023FB6014E07B680F
:10290000FF2B09D97A68134B9A4202D90C23FB603A
:102910000AE00823FB6007E07B680F2B02D9042341
:10292000FB6001E00023FB60FB687A68111CD94062
:102930000B1C094AD35C1A1CFB68D31A181CBD4631
:1029400004B080BDFFFF0000FFFFFF00FFFFFF0F8F
:10295000FFFF0F00FF0F0000FC3D000080B500AF3F
:10296000084B1B78012B0AD1074B1A88074B9A4258
:1029700005D0054B1B8801339AB2034B1A80BD4624
:1029800080BDC046C5F0FF1FC6F0FF1FFFFF00005F
:1029900080B500AF0A4B1B78012B0FD1094B1B8868
:1029A000002B05D0074B1B88013B9AB2054B1A80C0
:1029B000044B1B88002B01D100F06EF8BD4680BD92
:1029C000C5F0FF1FC6F0FF1F80B584B000AF786070
:1029D0003B1C0E3300221A803B1C0C3300221A8051
:1029E0003B1C0A3300221A807B68002B01D1294B43
:1029F0004BE07B681B68181CFFF760FF031C9AB252
:102A00003B1C0E331F218A1A1A803B1C0E331B8875
:102A1000202B03D93B1C0E331F221A803B1C0E3384
:102A20001B887A689B00D3185B68181CFFF746FF69
:102A3000031C9AB23B1C0C331F218A1A1A803B1CC0
:102A40000C331B88202B03D93B1C0C331F221A800C
:102A50003B1C0E331B885B019AB23B1C0C331B885A
:102A600013439AB23B1C0A331A803B1C0A331B885F
:102A7000072B03D83B1C0A331B8800E000233A1CB9
:102A80000A3213803B1C0A331B88181CBD4604B055
:102A900080BDC046FFFF000090B583B000AFBB1DF6
:102AA00000221A80104B1B78012B19D10F4B1B8869
:102AB000002B15D1BC1D0E4B181CFFF785FF031C06
:102AC0002380BB1D1A880B4B9200D2580A4B1A6008
:102AD000094B1A68094B1B689A4201D0FFF71EFE8A
:102AE000BD4603B090BDC046C5F0FF1FC6F0FF1F36
:102AF0009CF0FF1F48F1FF1FBCF0FF1FB8F0FF1F45
:102B000090B583B000AFBB1D00221A805B4B1B78D1
:102B1000012B00D0AEE0FFF721FF594B1B7CDA0000
:102B2000574BD318BC1D181CFFF74EFF031C238006
:102B3000BB1D1B88002B00D19AE0BB1D1A88514B8E
:102B40009200D3583B604E4B1B7CDA004C4BD318A1
:102B5000BA1D1288101C191CFFF766FE3B681B8A01
:102B6000002B00D16DE03B681B8A013B9AB23B68A9
:102B70001A823B681B8A002B4FD13B6800225A8285
:102B80003B689B69002B07D03B681A893B689B69AF
:102B9000101C191CFFF748FE3B68DB69002B10D0A6
:102BA0003B681A893B68DB69101C191CFFF73CFE67
:102BB0003B681A893B68DB694033101C191CFFF71E
:102BC00033FE3B681B6A002B07D03B681A893B68C1
:102BD0001B6A101C191CFFF727FE3B685B6A002B61
:102BE00007D03B681A893B685B6A101C191CFFF709
:102BF0001BFE3B681A89244B101C191CFFF7DAFDD9
:102C00003B6800229A613B680022DA613B6800223F
:102C10001A623B6800225A6213E03B685B8A1A1C06
:102C2000082313400DD0164B1B7C01225340DBB20E
:102C3000DA00134BD318BA1D1288101C191CFFF7A9
:102C4000B9FD0F4B1B7CDA000D4BD318BC1D181CB3
:102C5000FFF7BAFE031C2380BB1D1B88002B00D08E
:102C60006BE7074B1B7C01225340DAB2044B1A740A
:102C7000FFF78EFEBD4603B090BDC046C5F0FF1FF6
:102C8000A4F0FF1F48F1FF1F9CF0FF1F80B584B028
:102C900002AF1A4B00221A60194B00221A60194B1E
:102CA00000221A60184B00221A70184B00221A805A
:102CB00000F0CAF8031C1A1CBB1D1A80FFF73CFD6C
:102CC00000F068F800F04EF800F0A6F8FFF702FDFB
:102CD0000F4A104B00210091101C191C20220023C8
:102CE00000F0BEF8031C1A1CBB1D1A800A4B0122FF
:102CF0001A700023181CBD4602B080BDB8F0FF1F3B
:102D0000BCF0FF1FC0F0FF1FC5F0FF1FC6F0FF1F84
:102D1000B1280000C8F0FF1FC4F0FF1F80B500AF4E
:102D20000C4B1B78012B01D002230FE00A4B181C1F
:102D3000FFF74AFE031C1A1C084B9200D258084B9E
:102D40001A60002080F3108800DF0223181CBD46A3
:102D500080BDC046C4F0FF1F9CF0FF1F48F1FF1F5D
:102D6000BCF0FF1F80B582B000AF00237B60002362
:102D70003B60BD4602B080BD80B584B000AF7860D6
:102D80000023FB600023BB60BB68181CBD4604B079
:102D900080BDC04680B582B000AF00237B600023B9
:102DA0003B60BD4602B080BD80B586B000AFF86024
:102DB000B9607A6000237B613B69181CBD4606B090
:102DC00080BDC04680B586B000AFF860B960111C08
:102DD0001A1CFB1D19703B1D1A8000237B61FB68C8
:102DE0003B610023181CBD4606B080BD80B588B08D
:102DF00000AFF8607B603B1C0B3319703B1C083341
:102E00001A800023FB61FB68BB6100237B617B6947
:102E1000181CBD4608B080BD80B500AFBD4680BD62
:102E200080B584B000AF3A60BB1D021C1A803B1D08
:102E30000A1C1A800023FB600023BB60FB68181C7F
:102E4000BD4604B080BDC04680B582B000AFFB1D5A
:102E500000221A70FB1D1B78181CBD4602B080BDF5
:102E600080B586B000AFF860B9607A601A1CBB1CF0
:102E70001A8000237B61FB68002B01D101230BE04A
:102E8000BB68002B01D1012306E0BB1C1B88072B6C
:102E900001D9012300E00023181CBD4606B080BD07
:102EA00080B584B000AF021CBB1D1A800023FB60FC
:102EB0000023181CBD4604B080BDC04680B500AFDD
:102EC000034A88235B010021D150BD4680BDC04626
:102ED0000070044080B582B000AF021CFB1D1A7068
:102EE000064BFA1D1278111C1F220A400121081CF2
:102EF0009040021C1A60BD4602B080BD00E100E0B7
:102F000080B582B000AF021CFB1D1A70064AFB1D83
:102F10001B78191C1F230B40012199408023D1509D
:102F2000BD4602B080BDC04600E100E0B0B582B051
:102F300000AF021C3960FB1D1A70FB1D1B787F2B34
:102F400032D93049FB1D1B781A1C0F231340083B54
:102F500098082C4AFB1D1B781C1C0F232340083BA0
:102F60009B0806339B00D3185B68FA1D1278141C6B
:102F700003222240D200FF24251C95402A1CD24364
:102F80001A403B689C01FF231C40FB1D1B781D1C45
:102F900003232B40DB00251C9D402B1C1A43831D63
:102FA0009B00CB185A6029E0174BFA1D127852B2D9
:102FB00092081549F81D007840B28008C0308000A2
:102FC0004158F81D0078041C03202040C000FF2455
:102FD000251C8540281CC043084039688C01FF210E
:102FE0000C40F91D09780D1C03212940C900251C3E
:102FF0008D40291C0143C0329200D150BD4602B021
:10300000B0BDC04600ED00E000E100E090B585B045
:1030100000AF78607B681B0C084A9B18FB60FB685C
:10302000FA6811687A681204120C0120041C94409A
:10303000221C0A431A60BD4605B090BD00700440D2
:103040000FB480B582B000AF0D4B1B78002B02D1BE
:1030500001235B420DE03B1C14333B6009493A6994
:103060003B68081C111C1A1C00F0D8F8031C7B607C
:103070007B68181CBD4602B080BC08BC04B0184771
:103080008CF0FF1F8930000090B583B000AF7860EE
:103090000A4B1B78002B02D101235B4209E0074B4E
:1030A0009C68064B5A683B1D101C191C0122A04746
:1030B0000123181CBD4603B090BDC0468CF0FF1F15
:1030C00080B586B000AFB9607A603B603B1C0F33BF
:1030D000021C1A70BB687B610EE03B1C0F330022A0
:1030E0009A563B6A101C98473B681B685A1C3B6801
:1030F0001A607B6901337B617A697B689A42ECDBF9
:10310000BD4606B080BDC04680B58CB000AFF8604B
:10311000B9607A603B600023FB61FB68BB61BB69FF
:103120005A1CBA6100221A707B68002B35D0BB682C
:103130001B68FB62FB6A002B2BD1BB6930221A7023
:10314000FB690133FB61FB6964E0F86A3968FDF7EC
:1031500019FA031C7B617B693A685343FA6AD31AF4
:10316000BB62BB6A002B06DABB6A3B623B6A302259
:10317000D31ABB6202E0BB6A3033BB627B69FB627D
:10318000BB695A1CBA61BA6AD2B21A70FB690133C0
:10319000FB61FB6A002BD8D13BE0BB681B687B62FC
:1031A0007B6A002B32D1BB6930221A70FB69013374
:1031B000FB61FB692EE03B68786A191CFDF794F906
:1031C000031C3B613B683A6953437A6AD31A3B62FA
:1031D0003B6A092B03D83B6A30333B620BE03B1C54
:1031E00038331B78002B01D0412300E061233A6A79
:1031F0009B180A3B3B623B697B62BB695A1CBA6104
:103200003A6AD2B21A70FB690133FB617B6A002B08
:10321000D1D1FB69181CBD460CB080BD80B59CB0F7
:1032200002AFF860B9607A6000233B660023FB655B
:103230000023BB613B1C4A3300221A7000233B6110
:10324000BB687B667EE17B6C252B07D07A6CFB68C4
:10325000101C9847BB690133BB6170E13B1C4B33C9
:1032600001221A7000237B650023BB651CE07B6E86
:1032700001337B667B6E1B785BB27B647B6C2F2B90
:103280000DDD7B6C392B0ADC7A6D131C9B009B18BF
:103290005B001A1C7B6CD318303B7B6504E07B6EB3
:1032A000013B7B660123BB65BB6D002BDFD0062392
:1032B0003B657B6E01337B667B6E1B785BB22E2B8E
:1032C00025D100233B650023BB651CE07B6E0133E9
:1032D0007B667B6E1B785BB27B647B6C2F2B0DDD7A
:1032E0007B6C392B0ADC3A6D131C9B009B185B002E
:1032F0001A1C7B6CD318303B3B6504E07B6E013BB2
:103300007B660123BB65BB6D002BDFD002E07B6ECB
:10331000013B7B667B6E01337B667B6E1B785BB209
:103320007B647B6C642B1BD07B6C692B18D07B6C13
:10333000662B15D07B6C462B12D07B6C782B0FD074
:103340007B6C582B0CD07B6C6F2B09D07B6C622B69
:1033500006D07B6C702B03D07B6C752B00D0AAE061
:103360007B6C642B02D07B6C692B19D17B681A1D96
:103370007A601B687B613A1C1C323B1C1433391C7D
:103380004B3109780091101C191C01220A23FFF708
:10339000BBFE031CFB653A1C1C32FB6DD3183B665D
:1033A0007B6C582B02D07B6C782B20D17B6C782BDC
:1033B00003D13B1C4B3300221A707B681A1D7A60C4
:1033C0001B683B613A1C1C323B1C1033391C4B31CF
:1033D00009780091101C191C00221023FFF794FE9D
:1033E000031CFB653A1C1C32FB6DD3183B667B6CDF
:1033F0006F2B08D07B6C622B05D07B6C702B02D0BE
:103400007B6C752B3AD17B681A1D7A601B683B6117
:103410007B6C6F2B08D002DC622B0AD017E0702B7C
:103420000CD0752B0FD012E03B1C4A3308221A70C7
:103430000DE03B1C4A3302221A7008E03B1C4A3361
:1034400010221A7003E03B1C4A330A221A703B1CFC
:103450004A331B78391C1C313A1C1032381C4B3053
:1034600000780090081C111C0022FFF74DFE031C81
:10347000FB653A1C1C32FB6DD3183B667A6DF96D07
:103480003B1C1833F86800902020FFF719FE3B6EB4
:10349000002B0BD153E03B6E5A1E3A661B785AB292
:1034A000FB68101C9847BB690133BB613B6E1B78FE
:1034B000002BF0D143E07B6C632B0ED17B681A1D8F
:1034C0007A601B68DBB25BB23B643A6CFB68101C31
:1034D0009847BB690133BB6131E07B6C732B27D10B
:1034E0007B681A1D7A601B68FB64FB6C002B26D07E
:1034F000FB6C181C00F034F8031CFB657A6DF96D49
:103500003B1C1833F86800902020FFF7D9FD0AE033
:10351000FB6C5A1CFA641B785AB2FB68101C984763
:10352000BB690133BB61FB6C1B78002BF0D106E05B
:103530007A6CFB68101C9847BB690133BB617B6EDA
:1035400001337B667B6E1B785BB27B647B6C002BEC
:1035500000D078E6BB69181CBD461AB080BDC046D5
:103560000023C25C0133002AFBD1581E70470000C3
:10357000084B10B5041C002B02D0002100E000BF56
:10358000054B1868836A002B00D09847201C00F078
:1035900033F8C04600000000E03F000070B50E4B5D
:1035A0000E4D0024ED1AAD101E1CAC4204D0A30039
:1035B000F35898470134F8E700F014FD084B094D23
:1035C0000024ED1AAD101E1CAC4204D0A300F35829
:1035D00098470134F8E770BD044000000440000043
:1035E0000440000008400000031C8218934202D0EF
:1035F00019700133FAE77047FEE7C0462E2E2F649C
:103600007269766572732F66736C5F756172742E62
:103610006300000068616E646C650000636F756E26
:1036200074000000786665720000000078666572BC
:103630002D3E646174610000786665722D3E6461A0
:10364000746153697A6500002E2E2F647269766565
:1036500072732F66736C5F646D612E6800000000EA
:103660006368616E6E656C203C2046534C5F464536
:1036700041545552455F444D414D55585F4D4F445F
:10368000554C455F4348414E4E454C0068616E6461
:103690006C6520213D204E554C4C00002E2E2F6491
:1036A0007269766572732F66736C5F756172745F91
:1036B000646D612E63000000706172616D00000036
:1036C00068616E646C652D3E7478446D6148616E0E
:1036D000646C650068616E646C652D3E7278446D43
:1036E0006148616E646C6500000300000000040026
:1036F000010300000000011000127A0000048000A5
:103700002E2E2F647269766572732F66736C5F70EC
:103710006F72742E68000000636F6E666967000048
:103720002E2E2F647269766572732F66736C5F74C8
:1037300073695F76342E6300636F6E66696720215C
:103740003D204E554C4C000063616C42756666200E
:10375000213D204E554C4C002E2E2F64726976650B
:1037600072732F66736C5F756172742E6300000054
:10377000696E7374616E6365203C2075617274417B
:1037800072726179436F756E7400000068616E64D7
:103790006C650000636F6E6669670000636F6E663C
:1037A00069672D3E62617564526174655F42707332
:1037B0000000000062617564526174655F4270735D
:1037C00000000000646174610000000072696E67AF
:1037D00042756666657200007866657200000000DA
:1037E000786665722D3E6461746153697A65000084
:1037F000786665722D3E6461746100002E2E2F6420
:103800007269766572732F66736C5F7370692E636D
:103810000000000068616E646C65000068616E64A1
:103820006C6520262620786665720000735F7370D1
:103830006948616E646C655B305D0000735F737036
:103840006948616E646C655B315D00002E2E2F64EB
:103850007269766572732F66736C5F646D612E6832
:10386000000000006368616E6E656C203C2046536A
:103870004C5F464541545552455F444D414D555866
:103880005F4D4F44554C455F4348414E4E454C00BB
:1038900068616E646C6520213D204E554C4C0000E3
:1038A0002E2E2F647269766572732F66736C5F7348
:1038B00070695F646D612E63000000002E2E2F641E
:1038C0007269766572732F66736C5F74706D2E63A8
:1038D00000000000696E7374616E6365203C2074A3
:1038E000706D4172726179436F756E7400000000F3
:1038F000636F6E666967000063686E6C5061726129
:103900006D73000070776D467265715F487A0000D4
:103910006E756D4F6643686E6C730000737263431F
:103920006C6F636B5F487A0063686E6C4E756D6296
:103930006572203C2046534C5F46454154555245E4
:103940005F54504D5F4348414E4E454C5F434F5589
:103950004E546E28626173652900000063686E6CC6
:10396000436F756E7420213D202D31002E2E2F6463
:103970007269766572732F66736C5F7473695F76B4
:10398000342E68006368616E6E656C203C2046537F
:103990004C5F464541545552455F5453495F434837
:1039A000414E4E454C5F434F554E54006C6F775F10
:1039B0007468726573686F6C64203C20307846468A
:1039C00046465500686967685F7468726573686F1A
:1039D0006C64203C20307846464646550000000086
:1039E0002E2E2F647269766572732F66736C5F6416
:1039F00061632E63000000004E554C4C20213D2099
:103A0000636F6E6669670000696E646578203C20AC
:103A10004441435F4441544C5F434F554E54000072
:103A20002E2E2F647269766572732F66736C5F64D5
:103A30006D612E68000000006368616E6E656C2029
:103A40003C2046534C5F464541545552455F444DDA
:103A5000414D55585F4D4F44554C455F4348414E8D
:103A60004E454C002E2E2F647269766572732F6658
:103A7000736C5F646D612E6300000000696E737487
:103A8000616E6365203C2046534C5F46454154556A
:103A900052455F534F435F444D415F434F554E5432
:103AA00000000000636F6E66696720213D204E555F
:103AB0004C4C000068616E646C6520213D204E55C1
:103AC0004C4C00007372634164647220213D204EAF
:103AD000554C4C00646573744164647220213D2030
:103AE0004E554C4C00000000287372635769647493
:103AF00068203D3D20315529207C7C20287372634D
:103B00005769647468203D3D20325529207C7C2013
:103B1000287372635769647468203D3D20345529C9
:103B20000000000028646573745769647468203D60
:103B30003D20315529207C7C2028646573745769A9
:103B4000647468203D3D20325529207C7C20286407
:103B50006573745769647468203D3D2034552900AD
:103B60002E2E2F647269766572732F66736C5F6494
:103B70006D616D75782E6300696E7374616E636537
:103B8000203C2046534C5F464541545552455F53B7
:103B90004F435F444D414D55585F434F554E540080
:103BA0002E2E2F647269766572732F66736C5F6355
:103BB0006C6F636B2E630000636F6E666967000055
:103BC0002E2E2F647269766572732F66736C5F6335
:103BD0006D702E6300000000696E7374616E636522
:103BE000203C2046534C5F464541545552455F5357
:103BF0004F435F434D505F434F554E54000000000C
:103C00004E554C4C20213D20636F6E666967000065
:103C1000415353455254204552524F5220222025A1
:103C20007320223A2066696C652022257322204C7D
:103C3000696E6520222564222066756E6374696F43
:103C40006E206E616D652022257322200A0000001F
:103C50002E2E2F647269766572732F66736C5F63A4
:103C60006F702E63000000002E2E2F64726976653F
:103C700072732F66736C5F6461632E6300000000D3
:103C8000696E7374616E6365203C2046534C5F46D9
:103C90004541545552455F534F435F4441435F4351
:103CA0004F554E54000000002E2E2F647269766529
:103CB00072732F66736C5F636C6F636B2E630000AF
:103CC000675F7874616C304672657100675F787405
:103CD000616C333246726571000000006D6367707D
:103CE0006C6C30636C6B0000636F6E66696700001C
:103CF0002E2E2F647269766572732F66736C5F74F3
:103D000073695F76342E68006368616E6E656C203F
:103D10003C2046534C5F464541545552455F5453F1
:103D2000495F4348414E4E454C5F434F554E54000A
:103D30002E2E2F647269766572732F66736C5F61C5
:103D4000646331362E630000696E7374616E63655F
:103D5000203C2046534C5F464541545552455F53E5
:103D60004F435F41444331365F434F554E5400004B
:103D70004E554C4C20213D20636F6E6669670000F4
:103D80006368616E6E656C47726F7570203C204190
:103D900044435F5343315F434F554E54000000008E
:103DA0002E2E2F647269766572732F66736C5F6353
:103DB0006C6F636B2E630000675F7874616C3046D4
:103DC00072657100CE190000CE190000EC190000D8
:103DD000741A0000EC190000261A0000301A0000C6
:103DE0006A1A00003A1A0000441A00004E1A000035
:103DF000581A0000741A0000621A0000201F1E1ECC
:103E00001D1D1D1D1C1C1C1C1C1C1C1C5453495F0F
:103E10005365744D656173757265644368616E6E58
:103E2000656C4E756D62657200000000434C4F4337
:103E30004B5F4765744D6367457874436C6B46729E
:103E400065710000434C4F434B5F4765744F73638C
:103E5000304572436C6B467265710000434C4F43B2
:103E60004B5F476574457233326B436C6B467265CA
:103E7000710000008002DC020005B805800795088B
:103E8000000A710B434C4F434B5F476574506C6C99
:103E90003046726571000000434C4F434B5F456EE6
:103EA00061626C65506C6C3000000000434C4F4305
:103EB0004B5F5365745062654D6F64650000000090
:103EC000434C4F434B5F426F6F74546F5065654D69
:103ED0006F646500444D415F48616E646C65495292
:103EE00051000000444D415F436C6561724368615D
:103EF0006E6E656C537461747573466C61677300A4
:103F0000535049305F447269766572495251486135
:103F10006E646C6572000000535049315F447269F1
:103F200076657249525148616E646C65720000009A
:103F3000008003400090034000A0034018003C10A4
:103F400019003C101A003C1054504D5F47657449ED
:103F50006E7374616E63650054504D5F496E697491
:103F60000000000054504D5F4765744465666175FC
:103F70006C74436F6E6669670000000054504D5FBB
:103F8000536574757050776D0000000054504D5F9C
:103F900055706461746550776D44757479637963A5
:103FA0006C6500005453495F496E6974000000005D
:103FB0005453495F53657448696768546872657300
:103FC000686F6C64000000005453495F5365744C83
:103FD0006F775468726573686F6C6400430000000B
:103FE0000CF0FF1FF8B5C046F8BC08BC9E467047F1
:0C3FF000F8B5C046F8BC08BC9E467047FF
:083FFC0074C4FF7F0100000006
:04400400390400007B
:04400800110400009F
:10400C00000040010080000000093D00000000009D
:10401C000000000000000000000000000000000094
:10402C00000000000000000000000000DC3F000069
:10403C000000000000000000000000000000000074
:10404C000000000000000000000000000000000064
:10405C000000000000000000000000000000000054
:10406C000000000000000000000000000000000044
:04000003000006E90A
:00000001FF
